:100000000C9434000C9449000C9449000C94490061
:100010000C9449000C9449000C9449000C9449003C
:100020000C9449000C9449000C9449000C9449002C
:100030000C9449000C9449000C9449000C9449001C
:100040000C9449000C9449000C9449000C9449000C
:100050000C9449000C9449000C9449000C944900FC
:100060000C9449000C94490011241FBECFEFD8E036
:10007000DEBFCDBF11E0A0E0B1E0E0EBF1E002C0F7
:1000800005900D92AE30B107D9F70E94CF000C94C5
:10009000D6000C9400002BB1982F969596959C73E2
:1000A000237C922B9BB92C982B9A9AE09A95F1F786
:1000B00000C02B98EFE3F6E03197F1F700C00000A5
:1000C0009BB1880F880F8C73937C892B8BB92B9AEB
:1000D000FAE0FA95F1F700C02B988FE79EE30197BD
:1000E000F1F700C0000008952BB1982F96959695D2
:1000F0009C73237C922B9BB92C9A2B9A9AE09A950D
:10010000F1F700C02B98EFE3F6E03197F1F700C06C
:1001100000009BB1880F880F8C73937C892B8BB95F
:100120002B9AF5E0FA95F1F700002B988FE39FE109
:100130000197F1F700C00000089584B1886184B987
:100140008AB18C638AB92FEF83EF91E02150804010
:100150009040E1F700C0000082E00E944B0088E27E
:100160000E944B008CE00E944B0086E00E944B00F6
:1001700081E00E944B008FE79EE30197F1F700C0FA
:1001800000000895CF93DF93EC018881811103C0B3
:10019000DF91CF91089521960E947400F6CF0E94BE
:1001A0009D0080E091E00E94C200FFCFF894FFCF55
:0E01B00042617265204D6574616C2043000051
:00000001FF
