:100000000C9434000C9449000C9449000C94490061
:100010000C9449000C9449000C9449000C9449003C
:100020000C9449000C9449000C9449000C9449002C
:100030000C9449000C9449000C9449000C9449001C
:100040000C9449000C9449000C9449000C9449000C
:100050000C9449000C9449000C9449000C944900FC
:100060000C9449000C94490011241FBECFEFD8E036
:10007000DEBFCDBF11E0A0E0B1E0E4E9F3E002C0F3
:1000800005900D92A832B107D9F70E9442010C9455
:10009000C8010C9400002B9A85E08A95F1F70000C6
:1000A0002B988FE891E00197F1F700C000000895C8
:1000B0009BB1937C9BB983FD5A9A82FD5B9A81FD2B
:1000C0005C9A80FD5D9A0C944B00CF93C82F61150C
:1000D00091F02C9A8C2F82958F700E9458008C2F53
:1000E0008F700E94580087EC90E00197F1F700C0F4
:1000F0000000CF9108952C98EDCF84B1886184B928
:100100008AB18C638AB92FEF80E792E0215080405A
:100110009040E1F700C0000083E00E9458008FE1AA
:100120009EE40197F1F700C0000083E00E945800B0
:1001300087E592E00197F1F700C0000083E00E949C
:10014000580082E00E94580060E088E20E9465004A
:1001500060E08CE00E94650060E081E00E94650044
:100160008FE39FE10197F1F700C000000895CF935E
:10017000DF93EC018881811103C0DF91CF91089555
:10018000219661E00E946500F5CFEF92FF920F93F8
:100190001F93CF93DF9300D000D000D00F92CDB744
:1001A000DEB78E839F838E010F5F1F4F85E0F801BE
:1001B00011928A95E9F7209A2898FFEF20EE80E0C7
:1001C000F15020408040E1F700C00000289A90EAFA
:1001D0009A95F1F72098E5EDEA95F1F70000189B64
:1001E0000EC080E027960FB6F894DEBF0FBECDBFDD
:1001F000DF91CF911F910F91FF90EF900895189B81
:10020000FECF1899FECF2FEF3FEFA1E0B0E093B102
:10021000892F817090FFFBCFF0EAFA95F1F7189BD8
:1002200012C0E22FE095E695E695E695E00FF12FF6
:10023000F11DA90147707D0101C0EE0C4A95EAF756
:1002400090819E2990831899FECF21503109273D36
:100250009FEF3907E1F649819B815D812A81240F57
:100260003327331F290F311DEC812E0F311D30E054
:100270005217130609F0B5CFEE81FF814083FB01D1
:100280009083B0CF00D000D000D00F92CDB7DEB7B2
:100290000E947D00BE016A5F7F4FCE0107960E94DB
:1002A000C50060E08115C9F180E80E94650080E02A
:1002B00091E00E94B7008E814AE0BE016F5F7F4FE0
:1002C00090E00E949301CE0101960E94B70087E062
:1002D00091E00E94B70060E080EC0E9465008CE035
:1002E00091E00E94B7008F814AE0BE016F5F7F4FAF
:1002F00090E00E949301CE0101960E94B70083E135
:1003000091E00E94B7002FEF87EA91E621508040EC
:100310009040E1F700C00000BDCF80E80E9465007A
:1003200088E191E0EECFBB274A3031F4992322F4E3
:10033000BDE2909581959F4F0C949F01BB27FB01D7
:100340005527AA27880F991FAA1FA41710F0A41BCE
:1003500083955051B9F7A05DAA3308F0A95DA19328
:10036000009779F7B111B1931192CB010C94B801B8
:10037000DC01FC01672F71917723E1F7329704C00C
:100380007C916D9370836291AE17BF07C8F3089597
:04039000F894FFCF0F
:1003940054656D703A2000204320200048756D3A62
:1003A40020200020252020004572726F7220726583
:0803B4006164696E672000001E
:00000001FF
